:10000000F8C0000027C1000025C1000023C1000086
:1000100021C100001FC100001DC100001BC1000064
:1000200019C1000017C1000015C1000013C1000074
:1000300011C100000FC100000DC100000BC1000084
:1000400009C1000007C1000005C1000003C1000094
:1000500001C10000FFC00000FDC000000C94911021
:10006000F9C000000C945B130C949113F3C00000D2
:10007000F1C00000EFC00000EDC00000EBC00000C8
:10008000E9C00000E7C00000E5C00000E3C00000D8
:100090000C94E7130C941D14DDC00000DBC00000BD
:1000A000D9C00000D7C00000D5C00000D3C00000F8
:1000B000D1C00000CFC00000CDC00000CBC0000008
:1000C000C9C00000C7C00000C5C000000C94731474
:1000D0000C94A914BFC000000C94FF140C943515A7
:1000E000B9C0000000000A0B02090C0D0E0807033E
:1000F00004010000000000000000000000000000FB
:1001000000000000000000000000000000000000EF
:1001100012111000000000000000000000000000AC
:100120000000000000000000000001021020200874
:100130000810204010204080020102010804020142
:1001400001020408102040808040201008040201B1
:10015000800402018040201008040201080402010A
:100160000102040810204080010204081020408091
:1001700005050505070508080808020202020A0A23
:100180000808040404040101010101010101030341
:10019000030303030303040707070C0C0C0C0C0CEC
:1001A0000C0C0202020206060606060606060B0BE9
:1001B0000B0B0B0B0B0B00002200250028002B0063
:1001C0002E003100340002010000050108010B017E
:1001D00000002100240027002A002D0030003300F9
:1001E00001010000040107010A01BA134614D214E8
:1001F0005E1511241FBECFEFD1E2DEBFCDBF00E000
:100200000CBF12E0A0E0B2E0E8ECFBE200E00BBFC4
:1002100002C007900D92AA34B107D9F726E0AAE4EC
:10022000B2E001C01D92A830B207E1F710E0C9EFBB
:10023000D0E000E006C021970109802FFE010E9456
:10024000DA15C53FD10780E00807A9F70E94910D94
:100250000C94E215D5CE611102C00C94C811613026
:10026000E1F362E0FACF662319F061E00C94041226
:1002700060E0FCCF60E070E080E89FE7089560E018
:1002800070E080E89FE7089560E070E080E89FEF0D
:10029000089560E070E080E89FEF089560E070E00E
:1002A00080EC9FEF089560E070E080EC9FEF089590
:1002B000F5DF6093820570938305809384059093A6
:1002C0008505F1DF60937605709377058093780557
:1002D00090937905CFDF60937E0570937F058093BF
:1002E000800590938105CBDF60937A0570937B0541
:1002F00080937C0590937D05C7DF6093860570939E
:1003000087058093880590938905C3DF60938A05EC
:1003100070938B0580938C0590938D0508950F93B2
:100320001F938B019C010027112720783F7701152F
:10033000110520483F4749F4AB01BC016F7777278F
:1003400081E0452B462B472B09F480E01F910F914C
:100350000895E5CF4F925F926F927F928F929F9216
:10036000AF92BF92CF92DF92EF92FF920F931F93C3
:10037000CF93DF93CDB7DEB760970FB6F894DEBFAB
:100380000FBECDBF2B013C01CA01B901ED82FE8237
:100390000F831887A982BA82CB82DC82A3019201E3
:1003A0000E94C70D6B017C01E894F7F827E137EB59
:1003B00041ED58E3C701B6010E943F0E87FF08C018
:1003C00087E1C82E87EBD82E81EDE82E88E3F82E42
:1003D0002D813E814F815885CA01B9010E94E50FE8
:1003E0002B013C0128A539A54AA55BA5CA01B90185
:1003F0000E94E50F69877A878B879C879B01AC01F8
:10040000C301B2010E94C70D20E030E040E45FE389
:100410000E94E50F29813A814B815C810E94430E45
:100420004B015C0120E030E0A9010E943F0E87FFF4
:1004300003C0812C912C54012CA53DA54EA55FA590
:10044000CA01B9010E94E50F6D877E878F87988B5F
:100450009B01AC01C301B2010E94C70D20E030E056
:1004600040E45FE30E94E50F2CA13DA14EA15FA1F6
:100470000E94430E2B013C0120E030E0A9010E94C4
:100480003F0E87FF03C0412C512C3201A301920182
:10049000C501B4010E94C80D4B015C01A701960182
:1004A0000E943F0E18160CF4EDC08D819E81AF8125
:1004B000B8858093E2059093E305A093E405B0939B
:1004C000E505A5019401C701B6010E94C70D2D8164
:1004D0003E814F8158850E94430E6093F2057093D0
:1004E000F3058093F4059093F505C090E205D09054
:1004F000E305E090E405F090E50528A539A54AA5B7
:100500005BA5C701B6010E94C70D4B015C012981A3
:100510003A814B815C81CA01B9010E94C80D9B01DF
:10052000AC01C501B4010E94430E4B015C018092F5
:10053000E6059092E705A092E805B092E9052CA5A2
:100540003DA54EA55FA5C701B6010E94C70D6B0171
:100550007C012CA13DA14EA15FA1CA01B9010E945D
:10056000C80D9B01AC01C701B6010E94430E6B018F
:100570007C01C092EA05D092EB05E092EC05F09286
:10058000ED0520E030E0A901C501B4010E943F0E55
:1005900087FF08C01092E6051092E7051092E80563
:1005A0001092E90520E030E0A901C701B6010E94E0
:1005B0003F0E87FF08C01092EA051092EB051092DB
:1005C000EC051092ED0520E030E040E450E460914D
:1005D000E6057091E7058091E8059091E9050E9494
:1005E000E50F4B015C018092EE059092EF05A09221
:1005F000F005B092F10520E030E040E450E4609175
:10060000EA057091EB058091EC059091ED050E9453
:10061000E50F6B017C01C092AE05D092AF05E09270
:10062000B005F092B1052091F2053091F3054091AB
:10063000F4055091F505C501B4010E94C80DA7014C
:1006400096010E94C80D6093F6057093F70580939C
:10065000F8059093F90560960FB6F894DEBF0FBECB
:10066000CDBFDF91CF911F910F91FF90EF90DF9061
:10067000CF90BF90AF909F908F907F906F905F9042
:100680004F9008952BEA3AEA4AEA5FE3C701B601C0
:100690000E94E50F29813A814B815C810E94E50F20
:1006A0002CA13DA14EA15FA10E94E50F6B017C0131
:1006B0002CA13DA14EA15FA169857A858B859C8582
:1006C0000E94E50F9B01AC01C701B6010E94C80D55
:1006D0006B017C012D853E854F85588969817A8122
:1006E0008B819C810E94E50F9B01AC01C701B60183
:1006F0000E94C80D6B017C012CA13DA14EA15FA100
:1007000069817A818B819C810E94C80D9B01AC011B
:10071000C701B6010E94430E6B017C0120E030E06E
:10072000A9010E943F0E87FF03C0C12CD12C760186
:10073000C701B6010E944C106093E2057093E30577
:100740008093E4059093E5051092F2051092F3056D
:100750001092F4051092F505C8CECF92DF92EF9279
:10076000FF926B017C019F7720E030E040E859E583
:100770000E943F0E87FF2BC020E030E040E05FE3A7
:10078000C701B6010E94E10F87FD0EC020E030E0F6
:1007900040E05FE3C701B6010E94C80DFF90EF90F3
:1007A000DF90CF900C94190F20E030E040E05FEB39
:1007B000C701B6010E94E10F181684F420E030E072
:1007C000A901C701B6010E94E50F6B017C01C701B9
:1007D000B601FF90EF90DF90CF90089520E030E0D9
:1007E00040E05FE3C701B6010E94C70DFF90EF90A4
:1007F000DF90CF900C942C0E4F925F926F927F926D
:100800008F929F92AF92BF92CF92DF92EF92FF9220
:100810000F931F93CF93DF9300D000D000D01F928F
:10082000CDB7DEB7E091E402F091E50280819181DD
:10083000A281B3818093B2059093B305A093B405D0
:10084000B093B50580910206811167C04090CE0536
:100850005090CF056090D0057090D10581E08093D5
:10086000020620E030E040EA50E4C301B2010E94F9
:10087000E10F87FD5EC41092FE051092FF051092F5
:10088000000610920106A0901802B0901902C090C4
:100890001A02D0901B02E0901402F0901502009111
:1008A0001602109117022091040230910502409126
:1008B000060250910702609100027091010280913E
:1008C000020290910302E0910106EF93E09100068D
:1008D000EF93E091FF05EF93E091FE05EF93E09138
:1008E000FD05EF93E091FC05EF93E091FB05EF939D
:1008F000E091FA05EF93E0911F02EF93E0911E0261
:10090000EF93E0911D02EF93E0911C02EF9322DD43
:100910000FB6F894DEBF0FBECDBF8091B2059091A7
:10092000B305A091B405B091B50589839A83AB83D3
:10093000BC832091D2053091D3054091D4055091CC
:10094000D505BC01CD010E94C70D4B015C01809211
:10095000AE059092AF05A092B005B092B105C090DF
:10096000CE05D090CF05E090D005F090D10520E0E5
:1009700030E040EA50E4C701B6010E943F0E18166D
:100980000CF49DC4C092A605D092A705E092A805DC
:10099000F092A90510929A0510929B0510929C0561
:1009A00010929D051092AA051092AB051092AC050D
:1009B0001092AD0520E030E040EA50E4C701B601F6
:1009C0000E943F0E18160CF44AC18091F6059091D2
:1009D000F705A091F805B091F9058D839E83AF834B
:1009E000B8879C01AD01C501B4010E94E10F87FFEA
:1009F00063C04090A6055090A7056090A805709030
:100A0000A905C301B2010E94AB0EDB011197AA0F29
:100A1000BB1FAA0FBB1FA050BE4FBA87A98720E0FB
:100A200030E040E85FE3C301B2010E94C70D0E94BD
:100A3000AB0E61507109660F771F660F771FFB01C0
:100A4000E050FE4F2081318142815381E985FA8552
:100A500060817181828193810E94C70D9B01AC01ED
:100A60005F776091DE057091DF058091E0059091E0
:100A7000E1050E94E10F87FDF2C020E030E040E098
:100A80005FE36091EA057091EB058091EC05909130
:100A9000ED050E94E50F9B01AC016D817E818F8188
:100AA00098850E94C70D9B01AC01C501B4010E944D
:100AB000E10F18160CF0D3C020E030E040EA50E41B
:100AC000C701B6010E943F0E87FFCEC420E030E090
:100AD00040E85FE3C701B6010E94C80D6B017C01CD
:100AE000C092CE05D092CF05E092D005F092D1050C
:100AF00089819A81AB81BC818093D2059093D30583
:100B0000A093D405B093D5051092DE051092DF05B1
:100B10001092E0051092E1058091FE059091FF058D
:100B2000A0910006B09101068093FA059093FB0511
:100B3000A093FC05B093FD0520E030E040EA50E4CE
:100B4000C701B6010E94E10F87FDC6C31092FE05E2
:100B50001092FF0510920006109201064090CE05FB
:100B60005090CF056090D0057090D105A0901802EC
:100B7000B0901902C0901A02D0901B02809114020A
:100B800090911502A0911602B091170289839A8361
:100B9000AB83BC83C301B2010E94AB0E61507109EB
:100BA000660F771F660F771FFB01E050FE4F8081B5
:100BB0009181A281B3818D839E83AF83B88720E02A
:100BC00030E040E85FE3C301B201E1D70E94AB0E21
:100BD00061507109660F771F660F771FFB01E050A8
:100BE000FE4F6081718182819381209101062F9354
:100BF000209100062F932091FF052F932091FE0551
:100C00002F932091FD052F932091FC052F93209188
:100C1000FB052F932091FA052F9320911F022F930C
:100C200020911E022F9320911D022F9320911C02D0
:100C30002F93E980FA800B811C812D813E814F81A9
:100C4000588588DB1092AE051092AF051092B00562
:100C50001092B1050FB6F894DEBF0FBECDBF20E0F5
:100C600030E040EA50E46091CE057091CF0580916C
:100C7000D0059091D1050E943F0E18160CF4FBC5CB
:100C8000C090AE05D090AF05E090B005F090B105F2
:100C90008090E6059090E705A090E805B090E90502
:100CA000A5019401C701B601EAD7A501940187FF08
:100CB000E8C3609118027091190280911A02909114
:100CC0001B02E1D74B015C018092AA059092AB0513
:100CD000A092AC05B092AD05AC019B01C701B60175
:100CE0000E94E50F60939A0570939B0580939C0585
:100CF00090939D0520E030E040E05FE3C501B40142
:100D00000E94E50F4B015C01A7019601C701B601E6
:100D10000E94E50F9B01AC01C501B4010E94E50FE3
:100D20002091FA053091FB054091FC055091FD059D
:100D30002FD76093AE057093AF058093B005909365
:100D4000B105C090AE05D090AF05E090B005F09031
:100D5000B1052DEC3CEC4CE45DE3C701B6010E940B
:100D6000E10F18160CF090C58090B2059090B30575
:100D7000A090B405B090B5052091D6053091D70567
:100D80004091D8055091D905C501B40100D72B0178
:100D90003C0120E030E040E253E4C701B6010E948C
:100DA000E50F9B01AC0160E070E080E89FE36BD74A
:100DB00020E030E040E05FE30E94E50F9B01AC01E2
:100DC000C301B2010E94E10F87FD3BC04090DE05E8
:100DD0005090DF056090E0057090E1052091DA0504
:100DE0003091DB054091DC055091DD0560E070E05D
:100DF00080E89FE3CCD66093DA057093DB0580939F
:100E0000DC059093DD058092D6059092D705A092DF
:100E1000D805B092D90520E030E040E85FE32FD755
:100E200081110FC02DEC3CEC4CEC5BE3C301B20133
:100E3000AFD66093DE057093DF058093E005909355
:100E4000E1058090DA059090DB05A090DC05B0907C
:100E5000DD0580928E0590928F05A0929005B0924C
:100E600091054090A6055090A7056090A805709048
:100E7000A905C301B2016FD7DB011197AA0FBB1FF0
:100E8000AA0FBB1FA050BE4FBA83A98320E030E059
:100E900040E85FE3C301B2017AD65DD761507109C2
:100EA000660F771F660F771FFB01E050FE4F208112
:100EB000318142815381E981FA816081718182812E
:100EC00093810E94E10F87FDE8C480E090E0A0E8F4
:100ED000BFE38093920590939305A0939405B093FC
:100EE0009505C0929605D0929705E0929805F092EC
:100EF00099058091DE059091DF05A091E005B09104
:100F0000E10580939E0590939F05A093A005B09363
:100F1000A1058091AA059091AB05A091AC05B09177
:100F2000AD058093A2059093A305A093A405B0936B
:100F3000A505C501B40111DC6B017C0120E030E0A6
:100F400040E853E49CD66FEF87FF0DC020E030E00F
:100F5000A901C701B6010E94E10F60E087FD03C04F
:100F6000C701B601FDD683E07ED9609192057091EC
:100F700093058091940590919505EFDB6B017C01C1
:100F800020E030E040E853E47AD66FEF87FF0DC0F1
:100F900020E030E0A901C701B6010E94E10F60E046
:100FA00087FD03C0C701B601DBD686E05CD960913E
:100FB0002002709121028091220290912302CDDBC8
:100FC0006B017C0120E030E040E853E458D66FEF3D
:100FD00087FF0CC020E030E0A901C701B601F1D7BE
:100FE00060E087FD03C0C701B601BAD688E03BD9EF
:100FF000C090CE02D090CF02E090D002F090D1020B
:10100000FFEFCF1ADF0AEF0AFF0AC092CE02D0929A
:10101000CF02E092D002F092D102C114D104E104D7
:10102000F10499F48091D2029091D302A091D4025C
:10103000B091D5020196A11DB11D8093D20290936B
:10104000D302A093D402B093D5028090D6029090A0
:10105000D702A090D802B090D9022091E40230913A
:10106000E5023A8329836091D2027091D302809184
:10107000D4029091D502A0D6A5019401A6D720E074
:1010800030E040E85FE4A1D72B013C01C701B60185
:1010900093D6A501940199D79B01AC01C301B2017C
:1010A00077D5A981BA816D937D938D939C93139786
:1010B0008091DA029091DB02A091DC02B091DD0216
:1010C0000196A11DB11D8093DA029093DB02A093DB
:1010D000DC02B093DD02892B8A2B8B2B99F4809153
:1010E000DE029091DF02A091E002B091E102019650
:1010F000A11DB11D8093DE029093DF02A093E00258
:10110000B093E1022A960FB6F894DEBF0FBECDBFB2
:10111000DF91CF911F910F91FF90EF90DF90CF90D3
:10112000BF90AF909F908F907F906F905F904F9007
:101130000895C301B2010FD661507109660F771F80
:10114000660F771FFB01E050FE4FC080D180E28028
:10115000F38020E030E040E85FE3C301B20117D53F
:10116000FAD561507109660F771F660F771FFB0173
:10117000E050FE4F2081318142815381C701B60189
:1011800006D54B015C018092AE059092AF05A0920E
:10119000B005B092B10520E030E040E85FE3C30164
:1011A000B201F6D4D8D561507109660F771F660F6A
:1011B000771FFB01E050FE4FA7019601608171810E
:1011C00082819381E4D46B017C01C501B401C1D853
:1011D00081111CC08090AE059090AF05A090B00525
:1011E000B090B10520E030E0A901C501B40147D5B8
:1011F00087FF2BC080E090E0A0E8BFEB8093AE05B6
:101200009093AF05A093B005B093B105C701B601A7
:10121000A0D8811131C020E030E0A901C701B6019A
:101220002ED587FD23C020E030E0A901C701B6011B
:10123000C8D6C12CD12C90E8E92E9FE3F92E1816C0
:10124000DCF0C12CD12C760117C020E030E0A901E0
:10125000C501B401B6D618162CF480E090E0A0E8E1
:10126000BFE3CCCF80E090E0DC01C8CFC12CD12C13
:1012700080E8E82E8FEBF82EA70196016091AE056D
:101280007091AF058091B0059091B105F8D48111AE
:10129000F2CA2DEC3CEC4CE45FE3609114027091D7
:1012A000150280911602909117028FD66093FE0569
:1012B0007093FF058093000690930106E4CA80E0D6
:1012C00090E0A0EAB0E48093A6059093A705A093D0
:1012D000A805B093A9055ECBC701B6013CD5615006
:1012E0007109660F771F660F771FFB01E050FE4FF5
:1012F000408051806280738020E030E040E85FE30E
:10130000C701B60144D427D561507109660F771F14
:10131000660F771FFB01E050FE4F20813181428133
:101320005381C301B20133D44B015C018092AE05FD
:101330009092AF05A092B005B092B10520E030E0E8
:1013400040E85FE3C701B60123D405D561507109B8
:10135000660F771F660F771FFB01E050FE4FA3015A
:101360009201608171818281938111D46B017C0132
:10137000C501B4010E94A90181111CC08090AE0575
:101380009090AF05A090B005B090B10520E030E09E
:10139000A901C501B40173D487FF2CC080E090E09F
:1013A000A0E8BFEB8093AE059093AF05A093B00586
:1013B000B093B105C701B6010E94A901811131C0E6
:1013C00020E030E0A901C701B60159D487FD23C050
:1013D00020E030E0A901C701B601F3D5C12CD12C22
:1013E00050E8E52E5FE3F52E1816DCF0C12CD12C69
:1013F000760117C020E030E0A901C501B401E1D5B4
:1014000018162CF480E090E0A0E8BFE3CBCF80E09A
:1014100090E0DC01C7CFC12CD12C40E8E42E4FEB8B
:10142000F42EA70196016091AE057091AF058091F1
:10143000B0059091B10523D4811188CB2DEC3CEC03
:101440004CE45FE3609114027091150280911602E2
:1014500090911702BAD56093FE057093FF058093B3
:101460000006909301067ACB80E090E0A0ECB0E417
:101470008093CE059093CF05A093D005B093D1056E
:10148000EECBC501B40184D39B01AC01C701B60109
:10149000F6D387FF36C04090180250901902609032
:1014A0001A0270901B0240929A0550929B0560921E
:1014B0009C0570929D0520E030E040E05FE3C301B1
:1014C000B20183D5A501940180D52091FA05309110
:1014D000FB054091FC055091FD055AD369837A8341
:1014E0008B839C83A5019401C701B60150D3A3014E
:1014F00092016BD59B01AC0169817A818B819C81C2
:1015000017CC4090EE055090EF056090F00570907C
:10151000F105A3019201C701B601B1D387FF50C005
:10152000A7019601C301B20132D36B017C01409047
:1015300018025090190260901A0270901B02C301A9
:10154000B2019058A50194019ED36093AA057093AF
:10155000AB058093AC059093AD05A5019401C30143
:10156000B20191D34B015C01AC019B01C701B601F3
:101570002CD560939A0570939B0580939C0590935E
:101580009D0520E030E040E05FE3C501B4011DD5DA
:101590004B015C01A7019601C701B60116D59B015D
:1015A000AC01C501B40111D59B01AC016091E2050C
:1015B0007091E3058091E4059091E505E8D2B9CBFF
:1015C0002091F2053091F3054091F4055091F50515
:1015D000C301B201DDD22B013C01AC019B01C7016B
:1015E000B6014DD387FF19C08091E2059091E305C4
:1015F000A091E405B091E5058093AE059093AF0509
:10160000A093B005B093B10510929A0510929B0576
:1016100010929C0510929D0594CB8090EA059090C5
:10162000EB05A090EC05B090ED05A3019201C5017A
:10163000B401AED269837A838B839C839B01AC0116
:10164000C701B6011CD387FF46C0A3019201C701A1
:10165000B6019DD26B017C0160911C0270911D024C
:1016600080911E0290911F029058A50194010BD306
:101670004B015C018092AA059092AB05A092AC054B
:10168000B092AD05AC019B01C701B6019ED4609339
:101690009A0570939B0580939C0590939D0520E08F
:1016A00030E040E05FE3C501B4018FD44B015C0141
:1016B000A7019601C701B60188D49B01AC01C50101
:1016C000B40183D42091E2053091E3054091E40513
:1016D0005091E5052DCBA5019401C501B40158D267
:1016E000A301920155D29B01AC01C701B601C7D23B
:1016F00087FF39C040901C0250901D0260901E026E
:1017000070901F02D301C201B05880939A05909344
:101710009B05A0939C05B0939D0520E030E040E040
:101720005FE3C301B20151D4A50194014ED49B01E2
:10173000AC016091E2057091E3058091E405909120
:10174000E50525D24B015C0129813A814B815C8101
:10175000C701B6011CD2A301920137D49B01AC0191
:10176000C501B4012BCF4090F6055090F70560906D
:10177000F8057090F9058091FE059091FF05A09104
:101780000006B091010689839A83AB83BC83A301D1
:101790009201C701B60173D218160CF45FC0A701FD
:1017A0009601C301B201F3D16B017C0120E030E06E
:1017B000A90165D287FD49C0C092AE05D092AF05A0
:1017C000E092B005F092B105A501940160911C0270
:1017D00070911D0280911E0290911F0254D24B0104
:1017E0005C018092AA059092AB05A092AC05B092E4
:1017F000AD05C090AE05D090AF05E090B005F0907B
:10180000B1059058A7019601E0D360939A057093B3
:101810009B0580939C0590939D0520E030E040E07F
:101820005FE3C501B401D1D34B015C01A70196016F
:10183000C701B601CAD39B01AC01C501B401C5D330
:1018400029813A814B815C8173CA1092AE05109256
:10185000AF051092B0051092B105B6CF89819A817B
:10186000AB81BC818093AE059093AF05A093B0058A
:10187000B093B10566CA1092AE051092AF051092F2
:10188000B0051092B105C0CE1092DA051092DB05BA
:101890001092DC051092DD05D4CA80E090E0DC01F6
:1018A00018CBCF92DF92EF92FF920F931F93CF93BB
:1018B000DF9384E090E00E945801EAE4F2E084EAD9
:1018C000DF011D928A95E9F782EE92E09583848389
:1018D000C4EED2E0D7AFC6AF06ED12E0138B028B99
:1018E000F093B302E093B202F383E28321E030E0AD
:1018F000DC012D933C9384E292E09187808786EE11
:1019000092E0998388834FE652E163E07AE3F8013D
:101910004083518362837383EEE8F5E088E2DF0160
:101920001D928A95E9F7C6EBD5E080E5FE0111929C
:101930008A95E9F711E010930406C12CD12C7601A9
:10194000C394C986DA86EB86FC8661E083E00E9458
:101950002B011D87188210930306C982DA82EB825D
:10196000FC8261E086E00E942B011D83188A10939F
:101970000506C98ADA8AEB8AFC8A61E088E00E945F
:101980002B011D8B1092020680E090E0A0E0B0E4F5
:10199000888F998FAA8FBB8F1C8E1D8E1E8E1F8ED7
:1019A00018A219A21AA21BA21CA21DA21EA21FA24B
:1019B00018A619A61AA61BA61092FA051092FB05E6
:1019C0001092FC051092FD05DF91CF911F910F91B0
:1019D000FF90EF90DF90CF9008958091BE05811128
:1019E00003C081E08093BE058091B605811103C0DC
:1019F00081E08093B6058091C605811103C081E026
:101A00008093C605089540E855E260E070E090E0FC
:101A100080E000C08130910571F01CF4892B39F011
:101A200008958230910559F0039769F0089526E0F2
:101A300082E093E0E0C526E08FE993E0FBCF26E06B
:101A40008CE394E0F7CF26E089ED94E0F3CF08959E
:101A5000CF92DF92EF92FF920F931F93ACD36093DC
:101A6000EE027093EF028093F0029093F1020091E6
:101A7000F2021091F3022091F4023091F5026B0111
:101A80007C01C01AD10AE20AF30A97018601043FD9
:101A900011402105310508F16093F2027093F302C1
:101AA0008093F4029093F50225D085D30091F20241
:101AB0001091F3022091F4023091F502601B710B3A
:101AC000820B930B643F71408105910570F081E0BA
:101AD00090E09093F8028093F70281E01F910F91BC
:101AE000FF90EF90DF90CF9008951092F80210923F
:101AF000F702F3CF8091F60291E0980F9093F602EF
:101B0000882349F021E030E03093F8022093F70277
:101B10008093F60208950E94FC038091F6028150A2
:101B2000F7CFCF93DF93109207061092060668D383
:101B30006ADFC0913602D091370219821882B1DE75
:101B4000F89485DF81E028813981232B09F080E03A
:101B500080930606789480910606811107C03DDFC8
:101B6000F89490E080E0DF91CF91089581E02881A2
:101B70003981232B09F480E08093070690910706B2
:101B800081E0911180E08093060662DFE4CF505837
:101B9000BB27AA270ED0C4C1B5D130F0BAD120F0EE
:101BA00031F49F3F11F41EF4AAC10EF4E095E7FB57
:101BB00077C1E92FC6D180F3BA176207730784078C
:101BC000950718F071F49EF5F5C10EF4E0950B2E13
:101BD000BA2FA02D0B01B90190010C01CA01A0017F
:101BE0001124FF27591B99F0593F50F4503E68F1DA
:101BF0001A16F040A22F232F342F4427585FF3CF1B
:101C0000469537952795A795F0405395C9F77EF4EB
:101C10001F16BA0B620B730B840BBAF09150A1F034
:101C2000FF0FBB1F661F771F881FC2F70EC0BA0FBA
:101C3000621F731F841F48F4879577956795B79542
:101C4000F7959E3F08F0B3CF9395880F08F099273A
:101C5000EE0F97958795089596D180F09F3740F4C1
:101C600091110EF4A8C160E070E080E89FE3089550
:101C700026F01B16611D711D811D18C132C1ECD0EB
:101C800008F481E008950CD04BC143D140F03AD123
:101C900030F021F45F3F19F003C151118CC12FC105
:101CA00050D198F39923C9F35523B1F3951B550BE4
:101CB000BB27AA2762177307840738F09F5F5F4F1F
:101CC000220F331F441FAA1FA9F333D00E2E3AF060
:101CD000E0E830D091505040E695001CCAF729D07A
:101CE000FE2F27D0660F771F881FBB1F26173707C9
:101CF0004807AB07B0E809F0BB0B802DBF01FF27F9
:101D000093585F4F2AF09E3F510568F0C9C053C1F8
:101D10005F3FECF3983EDCF3869577956795B79532
:101D2000F7959F5FC9F7880F911D9695879597F94D
:101D30000895E1E0660F771F881FBB1F62177307C6
:101D40008407BA0720F0621B730B840BBA0BEE1FDB
:101D500088F7E095089504D06894B1112CC10895D6
:101D6000F8D088F09F5790F0B92F9927B751A0F07D
:101D7000D1F0660F771F881F991F1AF0BA95C9F71F
:101D800012C0B13081F016D1B1E0089513C1672FB0
:101D9000782F8827B85F39F0B93FCCF386957795CF
:101DA0006795B395D9F73EF49095809570956195B8
:101DB0007F4F8F4F9F4F0895E89409C097FB3EF4E3
:101DC00090958095709561957F4F8F4F9F4F992388
:101DD000A9F0F92F96E9BB279395F6958795779506
:101DE0006795B795F111F8CFFAF4BB0F11F460FFC6
:101DF0001BC06F5F7F4F8F4F9F4F16C0882311F01E
:101E000096E911C0772321F09EE8872F762F05C031
:101E1000662371F096E8862F70E060E02AF09A95CC
:101E2000660F771F881FDAF7880F9695879597F9C1
:101E30000895A9D080F09F3740F491110EF0BBC0F7
:101E400060E070E080E89FEB089526F41B16611DAA
:101E5000711D811D2BC045C0990F0008550FAA0B9D
:101E6000E0E8FEEF16161706E807F907C0F01216AD
:101E70001306E407F50798F0621B730B840B950BB0
:101E800039F40A2661F0232B242B252B21F4089505
:101E90000A2609F4A140A6958FEF811D811D0895A2
:101EA00097F99F6780E870E060E00895882371F4F7
:101EB000772321F09850872B762F07C0662311F4E3
:101EC00099270DC09051862B70E060E02AF09A951A
:101ED000660F771F881FDAF7880F9695879597F911
:101EE00008959F3F31F0915020F48795779567953D
:101EF000B795880F911D9695879597F908959FEF4F
:101F000080EC089500240A94161617061806090690
:101F1000089500240A94121613061406050608955F
:101F2000092E0394000C11F4882352F0BB0F40F4E7
:101F3000BF2B11F460FF04C06F5F7F4F8F4F9F4F27
:101F4000089557FD9058440F551F59F05F3F71F0A9
:101F50004795880F97FB991F61F09F3F79F0879510
:101F60000895121613061406551FF2CF4695F1DF99
:101F700008C0161617061806991FF1CF8695710529
:101F8000610508940895E5DFA0F0BEE7B91788F46D
:101F9000BB279F3860F41616B11D672F782F88274E
:101FA000985FF7CF869577956795B11D939596398C
:101FB000C8F30895E894BB2766277727CB0197F9E4
:101FC00008954ADF08F48FEF08950BD0A9CF9ADF68
:101FD00028F09FDF18F0952309F062CF90CF1124ED
:101FE000EACFAFDFA0F3959FD1F3950F50E0551FD7
:101FF000629FF001729FBB27F00DB11D639FAA275E
:10200000F00DB11DAA1F649F6627B00DA11D661FAC
:10201000829F2227B00DA11D621F739FB00DA11DCD
:10202000621F839FA00D611D221F749F3327A00D87
:10203000611D231F849F600D211D822F762F6A2F23
:1020400011249F5750408AF0E1F088234AF0EE0FA8
:10205000FF1FBB1F661F771F881F91505040A9F7B5
:102060009E3F510570F01CCFA6CF5F3FECF3983E2A
:10207000DCF3869577956795B795F795E7959F5F1C
:10208000C1F7FE2B880F911D9695879597F90895B6
:1020900011F40EF434CF25CF5CDFD0F39923D9F3BC
:1020A000CEF39F57550B87FF35D00024A0E640EABA
:1020B000900180585695979528F4805C660F771F9D
:1020C000881F20F026173707480730F4621B730B70
:1020D000840B202931294A2BA69517940794202593
:1020E00031254A2758F7660F771F881F20F02617DB
:1020F0003707480730F4620B730B840B200D311D3A
:10210000411DA09581F7B901842F9158880F9695AC
:102110008795089591505040660F771F881FD2F71A
:1021200008951F920F920FB60F9211242F933F9391
:102130008F939F93AF93BF938091FA029091FB028C
:10214000A091FC02B091FD023091F90223E0230F2F
:102150002D3758F50196A11DB11D2093F9028093EA
:10216000FA029093FB02A093FC02B093FD028091CF
:10217000FE029091FF02A0910003B091010301962D
:10218000A11DB11D8093FE029093FF02A093000356
:10219000B0930103BF91AF919F918F913F912F9188
:1021A0000F900FBE0F901F90189526E8230F0296F0
:1021B000A11DB11DD2CF3FB7F8948091FE0290913E
:1021C000FF02A0910003B091010326B5A89B05C0B2
:1021D0002F3F19F00196A11DB11D3FBFBA2FA92FA6
:1021E000982F8827BC01CD01620F711D811D911DA3
:1021F00042E0660F771F881F991F4A95D1F708950F
:10220000789484B5826084BD84B5816084BD85B5D1
:10221000826085BD85B5816085BDEEE6F0E0808198
:1022200081608083E1E8F0E01082808182608083B9
:10223000808181608083E0E8F0E08081816080833C
:10224000E1EBF0E0808184608083E0EBF0E080816E
:1022500081608083E1E9F0E0808182608083808119
:1022600081608083E0E9F0E0808181608083E1EA41
:10227000F0E0808182608083808181608083E0EAF9
:10228000F0E0808181608083E1E2F1E08081826022
:102290008083808181608083E0E2F1E080818160E1
:1022A0008083EAE7F0E080818460808380818260BF
:1022B00080838081816080838081806880831092A8
:1022C000C10008958150823108F059C0E82FF0E034
:1022D0008827E359FE4E8F4F6DC48D1191117F11E8
:1022E00085118911BF1194119A119E11A411A81181
:1022F000AC11B211B611BF11BA11C011C411809145
:1023000080008F77809380000895809180008F7D7A
:10231000F9CF80918000877FF5CF84B58F7784BD1A
:10232000089584B58F7DFBCF8091B0008F77809327
:10233000B00008958091B0008F7DF9CF809190001A
:102340008F77809390000895809190008F7DF9CFD2
:1023500080919000877FF5CF8091A0008F77809348
:10236000A00008958091A0008F7DF9CF8091A000FA
:10237000877FF5CF809120018F778093200108958A
:10238000809120018F7DF9CF80912001877FF5CF4B
:10239000CF93DF9390E0FC01E65DFE4F24918059DE
:1023A0009E4FFC0184918823C9F090E0880F991F0B
:1023B000FC01E053FE4FA591B491FC01EA54FE4F9D
:1023C000C591D49161110DC09FB7F8948C9120955F
:1023D00082238C938881282328839FBFDF91CF910C
:1023E0000895623051F49FB7F8943C91822F809504
:1023F00083238C93E8812E2BEFCF8FB7F894EC9149
:102400002E2B2C938FBFEACF1F93CF93DF93282FD0
:1024100030E0F901EC51FF4F8491F901E65DFE4F88
:10242000D491F901E059FE4FC491CC23A1F0162FAD
:10243000811148DFEC2FF0E0EE0FFF1FEA54FE4F52
:10244000A591B4918FB7F894EC91111108C0D09573
:10245000DE23DC938FBFDF91CF911F910895DE2B98
:10246000F8CFFC01918D228D892F90E0805C9F4FE9
:10247000821B91098F7399270895FC01918D828D9C
:10248000981731F0828DE80FF11D858D90E0089549
:102490008FEF9FEF0895FC01918D828D981761F069
:1024A000A28DAE0FBF2FB11D5D968C91928D9F5F57
:1024B0009F73928F90E008958FEF9FEF0895FC0136
:1024C000538D448D252F30E0842F90E0821B930B99
:1024D000541710F0CF96089501970895FC01A48D2C
:1024E000A80FB92FB11DA35ABF4F2C91848D90E036
:1024F00001968F739927848FA689B7892C93A08919
:10250000B1898C91837080648C93938D848D9813A2
:1025100006C00288F389E02D80818F7D8083089535
:10252000CF93DF93EC01888D8823B1F0AA89BB8912
:10253000E889F9898C9185FD03C0808186FD0CC0F6
:102540000FB607FCF7CF8C9185FFF2CF808185FF16
:10255000EDCFCE01C3DFEACFDF91CF910895EF92A7
:10256000FF920F931F93CF93DF93EC0181E0888F4D
:102570009B8D8C8D98131AC0E889F989808185FF1D
:1025800015C09FB7F894EE89FF896083E889F989BF
:1025900080818370806480839FBF81E090E0DF91C1
:1025A000CF911F910F91FF90EF900895F62E0B8D14
:1025B00010E00F5F1F4F0F731127E02E8C8D8E11CF
:1025C0000BC00FB607FCFACFE889F989808185FF37
:1025D000F5CFCE0183DFF2CFEB8DEC0FFD2FF11D98
:1025E000E35AFF4FF0829FB7F8940B8FEA89FB897B
:1025F00080818062D0CFCF92DF92EF92FF921F93C3
:10260000CF93DF93EC016A017B01122FE889F989EE
:1026100082E08083C11481EED806E104F10499F0D0
:1026200060E079E08DE390E0A7019601A1D221500E
:102630003109410951095695479537952795211537
:1026400080E1380790F0E889F989108260E874E841
:102650008EE190E0A70196018BD22150310941090A
:1026600051095695479537952795EC85FD8530831B
:10267000EE85FF852083188EEC89FD891083EA8919
:10268000FB89808180618083EA89FB898081886001
:102690008083EA89FB89808180688083EA89FB895D
:1026A00080818F7D8083DF91CF911F91FF90EF908C
:1026B000DF90CF9008951F920F920FB60F921124C2
:1026C0000BB60F922F938F939F93EF93FF93E0910D
:1026D0001203F09113038081E0911803F091190324
:1026E00082FD1DC0908180911B038F5F8F732091AD
:1026F0001C03821741F0E0911B03F0E0EE5FFC4FFA
:10270000958F80931B03FF91EF919F918F912F9154
:102710000F900BBE0F900FBE0F901F9018958081E9
:10272000F2CF1F920F920FB60F9211240BB60F9299
:102730002F933F934F935F936F937F938F939F93C9
:10274000AF93BF93EF93FF9382E093E0C7DEFF91D7
:10275000EF91BF91AF919F918F917F916F915F9119
:102760004F913F912F910F900BBE0F900FBE0F9086
:102770001F901895E2E0F3E01382128288EE93E056
:10278000A0E0B0E084839583A683B7838CE392E0D6
:102790009183808385EC90E09587848784EC90E03A
:1027A0009787868780EC90E0918B808B81EC90E01E
:1027B000938B828B82EC90E0958B848B86EC90E0FF
:1027C000978B868B118E128E138E148E08951F9206
:1027D0000F920FB60F9211240BB60F922F938F9377
:1027E0009F93EF93FF93E091AF03F091B00380814B
:1027F000E091B503F091B60382FD1DC090818091F8
:10280000B8038F5F8F732091B903821741F0E09175
:10281000B803F0E0E156FC4F958F8093B803FF9129
:10282000EF919F918F912F910F900BBE0F900FBE44
:102830000F901F9018958081F2CF1F920F920FB6C4
:102840000F9211240BB60F922F933F934F935F93E8
:102850006F937F938F939F93AF93BF93EF93FF9368
:102860008FE993E03BDEFF91EF91BF91AF919F9194
:102870008F917F916F915F914F913F912F910F9029
:102880000BBE0F900FBE0F901F901895EFE9F3E06D
:102890001382128288EE93E0A0E0B0E084839583F7
:1028A000A683B7838CE392E0918380838DEC90E0E4
:1028B000958784878CEC90E09787868788EC90E0FA
:1028C000918B808B89EC90E0938B828B8AEC90E0EB
:1028D000958B848B8EEC90E0978B868B118E128E6D
:1028E000138E148E08951F920F920FB60F9211241B
:1028F0000BB60F922F938F939F93EF93FF93E091DB
:102900004C04F0914D048081E0915204F091530405
:1029100082FD1DC09081809155048F5F8F7320913F
:102920005604821741F0E0915504F0E0E45CFB4F5F
:10293000958F80935504FF91EF919F918F912F91E7
:102940000F900BBE0F900FBE0F901F9018958081B7
:10295000F2CF1F920F920FB60F9211240BB60F9267
:102960002F933F934F935F936F937F938F939F9397
:10297000AF93BF93EF93FF938CE394E0AFDDFF91B0
:10298000EF91BF91AF919F918F917F916F915F91E7
:102990004F913F912F910F900BBE0F900FBE0F9054
:1029A0001F901895ECE3F4E01382128288EE93E016
:1029B000A0E0B0E084839583A683B7838CE392E0A4
:1029C0009183808385ED90E09587848784ED90E006
:1029D0009787868780ED90E0918B808B81ED90E0EA
:1029E000938B828B82ED90E0958B848B86ED90E0CB
:1029F000978B868B118E128E138E148E08951F92D4
:102A00000F920FB60F9211240BB60F922F938F9344
:102A10009F93EF93FF93E091E904F091EA048081A2
:102A2000E091EF04F091F00482FD1DC0908180914F
:102A3000F2048F5F8F732091F304821741F0E091CD
:102A4000F204F0E0E752FB4F958F8093F204FF9180
:102A5000EF919F918F912F910F900BBE0F900FBE12
:102A60000F901F9018958081F2CF1F920F920FB692
:102A70000F9211240BB60F922F933F934F935F93B6
:102A80006F937F938F939F93AF93BF93EF93FF9336
:102A900089ED94E023DDFF91EF91BF91AF919F917C
:102AA0008F917F916F915F914F913F912F910F90F7
:102AB0000BBE0F900FBE0F901F901895E9EDF4E03C
:102AC0001382128288EE93E0A0E0B0E084839583C5
:102AD000A683B7838CE392E09183808385E391E0C2
:102AE0009587848784E391E09787868780E391E0E8
:102AF000918B808B81E391E0938B828B82E391E0D9
:102B0000958B848B86E391E0978B868B118E128E4A
:102B1000138E148E0895AF92BF92CF92DF92EF92F0
:102B2000FF920F931F93CF93DF936C017B018B0177
:102B3000040F151FEB015E01AE18BF08C017D107C7
:102B400059F06991D601ED91FC910190F081E02D51
:102B5000C6011995892B79F7C501DF91CF911F9196
:102B60000F91FF90EF90DF90CF90BF90AF900895BE
:102B7000A1E21A2EAA1BBB1BFD010DC0AA1FBB1F81
:102B8000EE1FFF1FA217B307E407F50720F0A21BF3
:102B9000B30BE40BF50B661F771F881F991F1A9460
:102BA00069F760957095809590959B01AC01BD018A
:102BB000CF010895EE0FFF1F881F8BBF0790F6917E
:082BC000E02D1994F894FFCFF9
:102BC80000000000000020410000B041000020414A
:102BD8000000000000002041000020420000A04149
:102BE8000000000046697865645374657044697331
:102BF8006372657465004A0200000000AF128B150D
:0A2C08005F12901231124B123D12C0
:00000001FF
