:10000000F8C0000027C1000025C1000023C1000086
:1000100021C100001FC100001DC100001BC1000064
:1000200019C1000017C1000015C1000013C1000074
:1000300011C100000FC100000DC100000BC1000084
:1000400009C1000007C1000005C1000003C1000094
:1000500001C10000FFC00000FDC000000C94FB0CBB
:10006000F9C000000C94C50F0C94FB0FF3C0000006
:10007000F1C00000EFC00000EDC00000EBC00000C8
:10008000E9C00000E7C00000E5C00000E3C00000D8
:100090000C9451100C948710DDC00000DBC00000F0
:1000A000D9C00000D7C00000D5C00000D3C00000F8
:1000B000D1C00000CFC00000CDC00000CBC0000008
:1000C000C9C00000C7C00000C5C000000C94DD100E
:1000D0000C941311BFC000000C9469110C949F1173
:1000E000B9C0000000000A0B02090C0D0E0807033E
:1000F00004010000000000000000000000000000FB
:1001000000000000000000000000000000000000EF
:1001100012111000000000000000000000000000AC
:100120000000000000000000000001021020200874
:100130000810204010204080020102010804020142
:1001400001020408102040808040201008040201B1
:10015000800402018040201008040201080402010A
:100160000102040810204080010204081020408091
:1001700005050505070508080808020202020A0A23
:100180000808040404040101010101010101030341
:10019000030303030303040707070C0C0C0C0C0CEC
:1001A0000C0C0202020206060606060606060B0BE9
:1001B0000B0B0B0B0B0B00002200250028002B0063
:1001C0002E003100340002010000050108010B017E
:1001D00000002100240027002A002D0030003300F9
:1001E00001010000040107010A012410B0103C11B4
:1001F000C81111241FBECFEFD1E2DEBFCDBF00E09A
:100200000CBF12E0A0E0B2E0ECE9F4E200E00BBFCA
:1002100002C007900D92A634B107D9F725E0A6E4F5
:10022000B2E001C01D92A83DB207E1F710E0C9EFAE
:10023000D0E000E006C021970109802FFE010E9456
:100240004412C53FD10780E00807A9F70E94FB09C7
:100250000C944C12D5CE611102C00C94320E613058
:10026000E1F362E0FACF662319F061E00C946E0EC0
:1002700060E0FCCFCF92DF92EF92FF926B017C01A6
:100280009F7720E030E040E859E50E94A90A87FF07
:100290002BC020E030E040E05FE3C701B6010E94E0
:1002A0004B0C87FD0EC020E030E040E05FE3C7016B
:1002B000B6010E94320AFF90EF90DF90CF900C942D
:1002C000830B20E030E040E05FEBC701B6010E9405
:1002D0004B0C181684F420E030E0A901C701B601E8
:1002E0000E944F0C6B017C01C701B601FF90EF909B
:1002F000DF90CF90089520E030E040E05FE3C70159
:10030000B6010E94310AFF90EF90DF90CF900C94DD
:10031000960A4F925F926F927F928F929F92AF92C6
:10032000BF92CF92DF92EF92FF92CF93DF93CDB740
:10033000DEB760970FB6F894DEBF0FBECDBFE09179
:10034000E002F091E10220813181428153812987CD
:100350003A874B875C878091B605811105C181E0A2
:100360008093B605409018025090190260901A02CE
:1003700070901B028091140290911502A0911602B8
:10038000B091170289839A83AB83BC8320911002BA
:100390003091110240911202509113022D833E833D
:1003A0004F83588720910002309101024091020250
:1003B000509103026091040270910502809106023F
:1003C000909107020E94310A6B017C01E894F7F8D2
:1003D00027E137EB41ED58E3C701B6010E94A90AB6
:1003E00087FF08C0F7E1CF2EF7EBDF2EF1EDEF2E00
:1003F000F8E3FF2E2D813E814F815885CA01B90156
:100400000E944F0C4B015C0129813A814B815C8138
:100410000E94AD0A20E030E040E45FE30E944F0C10
:100420006D877E878F87988BA3019201C501B401E8
:100430000E94AD0A20E030E040E45FE30E944F0CF0
:100440009B01AC016D857E858F8598890E94320A5B
:100450004B015C01A70196010E94A90A18160CF431
:1004600055C28D819E81AF81B88580939E05909302
:100470009F05A093A005B093A105A5019401C70114
:10048000B601EFD72D813E814F8158850E94AD0A7C
:100490006093AE057093AF058093B0059093B1055E
:1004A000C0909E05D0909F05E090A005F090A1051A
:1004B00029813A814B815C81CA01B901D3D79B0163
:1004C000AC01C701B6010E94AD0A4B015C018092EC
:1004D000A2059092A305A092A405B092A505A30140
:1004E0009201C301B201BED79B01AC01C701B601A5
:1004F0000E94AD0A6B017C01C092A605D092A705AF
:10050000E092A805F092A90520E030E040E450E434
:10051000C501B4010E944F0C6093AA057093AB050E
:100520008093AC059093AD052091AE053091AF0559
:100530004091B0055091B10595D74B015C0120E089
:1005400030E040E450E4C701B6010E944F0C9B012B
:10055000AC01C501B40186D76093B2057093B305B1
:100560008093B4059093B50520918E0530918F0549
:10057000409190055091910569857A858B859C8580
:1005800070D72B013C011092D2051092D305109226
:10059000D4051092D5051092C6051092C705109289
:1005A000C8051092C9052091B2053091B30540915C
:1005B000B4055091B50529833A834B835C83C09081
:1005C0008A05D0908B05E0908C05F0908D050E94F7
:1005D0004B0C87FF59C0C701B6010E94150BAB0138
:1005E00041505109440F551F440F551F40505E4F55
:1005F0005E834D8320E030E040E85FE3C701B60151
:1006000030D70E94150B61507109660F771F660F76
:10061000771FFB01E050FE4F2081318142815381E1
:10062000AD81BE816D917D918D919C911AD79B0179
:10063000AC015F7760919A0570919B0580919C0554
:1006400090919D050E944B0C87FDC5C120E030E0D4
:1006500040E05FE36091A6057091A7058091A80531
:100660009091A9050E944F0C9B01AC0169817A8190
:100670008B819C81F6D69B01AC01C301B2010E9423
:100680004B0C18160CF0A7C120E030E040E850E415
:10069000C701B6015ED787FF35C120E030E040E8F2
:1006A0005FE3C701B601DED66B017C01C0928A050B
:1006B000D0928B05E0928C05F0928D0529853A85C4
:1006C0004B855C8520938E0530938F054093900574
:1006D0005093910510929A0510929B0510929C05DB
:1006E00010929D05409018025090190260901A02D5
:1006F00070901B028091140290911502A091160235
:10070000B091170289839A83AB83BC832091100236
:100710003091110240911202509113022D833E83B9
:100720004F835887C701B60180D7AB0141505109AB
:10073000440F551F440F551F40505E4F5E874D8735
:1007400020E030E040E85FE3C701B6018AD66DD70C
:1007500061507109660F771F660F771FFB01E0502C
:10076000FE4F2081318142815381AD85BE856D91DF
:100770007D918D919C9175D66B017C01E894F7F881
:1007800027E137EB41ED58E3C701B601E2D687FF19
:1007900008C027E1C22E27EBD22E21EDE22E28E35E
:1007A000F22E2D813E814F815885CA01B9010E94E8
:1007B0004F0C4B015C0129813A814B815C81CDD684
:1007C00020E030E040E45FE30E944F0C6D877E87BD
:1007D0008F87988BA3019201C501B401BED620E09A
:1007E00030E040E45FE30E944F0C9B01AC016D855B
:1007F0007E858F85988936D64B015C01A7019601CD
:10080000A8D618160CF4B5C02D813E814F815885AD
:1008100020939E0530939F054093A0055093A1051A
:10082000A5019401C701B6011CD62D813E814F81DF
:10083000588593D66093AE057093AF058093B0054D
:100840009093B105C0909E05D0909F05E090A005C3
:10085000F090A10529813A814B815C81CA01B901DF
:1008600001D69B01AC01C701B60177D64B015C01F3
:100870008092A2059092A305A092A405B092A5052E
:10088000A3019201C301B201EDD59B01AC01C701E7
:10089000B60163D66B017C01C092A605D092A70574
:1008A000E092A805F092A90520E030E040E450E491
:1008B000C501B401F4D76093AA057093AB0580938A
:1008C000AC059093AD052091AE053091AF054091F8
:1008D000B0055091B105C6D54B015C0120E030E078
:1008E00040E450E4C701B601DAD79B01AC01C50171
:1008F000B401B8D56093B2057093B3058093B40585
:100900009093B505C12CD12C760148C1A701960161
:10091000C701B601A7D529813A814B815C81BFD738
:10092000A3019201BCD76B017C0129813A814B81E3
:100930005C81C301B20196D520E030E040EC5FE37A
:10094000AED79B01AC01C701B60107D60E94B60C19
:1009500060939E0570939F058093A0059093A105D9
:100960001092AE051092AF051092B0051092B1052D
:1009700097CDA7019601C701B60174D529813A81A7
:100980004B815C818CD7A301920189D76B017C01DB
:1009900029813A814B815C81C301B20163D520E09A
:1009A00030E040EC5FE37BD79B01AC01C701B601AF
:1009B000D4D5DCD760939E0570939F058093A005E6
:1009C0009093A1051092AE051092AF051092B0055C
:1009D0001092B10537CF8090A2059090A305A0900A
:1009E000A405B090A505A5019401C301B201B1D53C
:1009F000A501940187FF2CC060911402709115022B
:100A00008091160290911702A8D56B017C01AC0170
:100A10009B01C301B20143D76093C6057093C7051C
:100A20008093C8059093C90520E030E040E05FE383
:100A3000C701B60134D74B015C01A3019201C30188
:100A4000B2012DD79B01AC01C501B40128D79EC0CE
:100A5000C501B40107D59B01AC01C301B20179D531
:100A600087FF36C0C0901402D0901502E0901602A5
:100A7000F0901702C092C605D092C705E092C80553
:100A8000F092C90520E030E040E05FE3C701B60125
:100A900006D7A501940103D769837A838B839C834E
:100AA000A5019401C301B201DCD4A7019601F7D6D8
:100AB0009B01AC0169817A818B819C81D3D4609345
:100AC000D2057093D3058093D4059093D5051ACFA2
:100AD000C090AA05D090AB05E090AC05F090AD05B4
:100AE000A7019601C301B20134D587FF42C2A30119
:100AF0009201C701B601B5D42B013C0180911402CB
:100B000090911502A0911602B091170289839A83E1
:100B1000AB83BC83BC01CD019058A50194011DD5C8
:100B20006B017C01A501940169817A818B819C8193
:100B300014D54B015C01AC019B01C301B201AFD6DE
:100B40006093C6057093C7058093C8059093C90547
:100B500020E030E040E05FE3C501B401A0D64B01E6
:100B60005C01A3019201C301B20199D69B01AC01C2
:100B7000C501B40194D69B01AC0160919E057091B2
:100B80009F058091A0059091A1056BD46093D2053B
:100B90007093D3058093D4059093D5054090D205EA
:100BA0005090D3056090D4057090D5052DEC3CECA9
:100BB0004CE45DE3C301B2016ED618160CF0DCC242
:100BC000209192053091930540919405509195059F
:100BD00069857A858B859C8544D44B015C0120E036
:100BE00030E040E253E4C301B20159D69B01AC01AD
:100BF00060E070E080E89FE3B0D420E030E040E0C7
:100C00005FE34DD69B01AC01C501B40144D687FD1D
:100C10003FC080909A0590909B05A0909C05B09055
:100C20009D0520919605309197054091980550912A
:100C3000990560E070E080E89FE313D46093960527
:100C400070939705809398059093990529853A8527
:100C50004B855C85209392053093930540939405D2
:100C60005093950520E030E040E85FE372D48111B5
:100C70000FC02DEC3CEC4CEC5BE3C501B401F2D3AE
:100C800060939A0570939B0580939C0590939D05B6
:100C90008090960590909705A0909805B090990542
:100CA0008092BA059092BB05A092BC05B092BD059A
:100CB00080918A0590918B05A0918C05B0918D054E
:100CC00089839A83AB83BC83BC01CD01AED4DB01A5
:100CD0001197AA0FBB1FAA0FBB1FA050BE4FBE8308
:100CE000AD8320E030E040E85FE369817A818B8169
:100CF0009C81B7D39AD461507109660F771F660F34
:100D0000771FFB01E050FE4F2081318142815381EA
:100D1000ED81FE816081718182819381BCD587FDE7
:100D200034C280E090E0A0E8BFE38093BE059093DA
:100D3000BF05A093C005B093C1054092C205509273
:100D4000C3056092C4057092C50580919A05909183
:100D50009B05A0919C05B0919D058093CA05909339
:100D6000CB05A093CC05B093CD05C092CE05D09213
:100D7000CF05E092D005F092D105C501B4017ADA31
:100D80006B017C0120E030E040E853E4E2D36FEFF8
:100D900087FF0CC020E030E0A901C701B6017BD578
:100DA00060E087FD03C0C701B60144D483E05BDA8D
:100DB0006091BE057091BF058091C0059091C105FD
:100DC00059DA6B017C0120E030E040E853E4C1D304
:100DD0006FEF87FF0CC020E030E0A901C701B6012A
:100DE0005AD560E087FD03C0C701B60123D486E071
:100DF0003ADA60911C0270911D0280911E0290915E
:100E00001F0238DA6B017C0120E030E040E853E457
:100E1000A0D36FEF87FF0CC020E030E0A901C7012D
:100E2000B60139D560E087FD03C0C701B60102D421
:100E300088E019DAC090CA02D090CB02E090CC02D0
:100E4000F090CD02FFEFCF1ADF0AEF0AFF0AC0923F
:100E5000CA02D092CB02E092CC02F092CD02C11431
:100E6000D104E104F10499F48091CE029091CF0273
:100E7000A091D002B091D1020196A11DB11D809325
:100E8000CE029093CF02A093D002B093D102809073
:100E9000D2029090D302A090D402B090D5022091BB
:100EA000E0023091E1023A8329836091CE02709191
:100EB000CF028091D0029091D102E8D3A501940194
:100EC000EED420E030E040E85FE4E9D42B013C01BF
:100ED000C701B601DBD3A5019401E1D49B01AC01AC
:100EE000C301B201BFD2A981BA816D937D938D9365
:100EF0009C9313978091D6029091D702A091D8022B
:100F0000B091D9020196A11DB11D8093D602909394
:100F1000D702A093D802B093D902892B8A2B8B2BAE
:100F200099F48091DA029091DB02A091DC02B091F9
:100F3000DD020196A11DB11D8093DA029093DB02C0
:100F4000A093DC02B093DD0260960FB6F894DEBF8A
:100F50000FBECDBFDF91CF91FF90EF90DF90CF908C
:100F6000BF90AF909F908F907F906F905F904F90C9
:100F700008952091AE053091AF054091B005509194
:100F8000B105C701B6016ED24B015C01AC019B01FA
:100F9000C301B201DED287FF11C080919E059091FE
:100FA0009F05A091A005B091A1058093D2059093D3
:100FB000D305A093D405B093D505A4CCC090A605C5
:100FC000D090A705E090A805F090A905A50194018F
:100FD000C701B60147D26D837E838F8398879B01BB
:100FE000AC01C301B201B5D287FF3FC0A501940196
:100FF000C301B20136D24B015C01609118027091BD
:10100000190280911A0290911B029058A701960133
:10101000A4D26B017C01AC019B01C501B4013FD49A
:101020006093C6057093C7058093C8059093C90562
:1010300020E030E040E05FE3C701B60130D42B018F
:101040003C01A5019401C501B40129D49B01AC0167
:10105000C301B20124D420919E0530919F05409197
:10106000A0055091A105FED191CDA7019601C70120
:10107000B601F8D1A5019401F5D19B01AC01C301E2
:10108000B20167D287FF3AC080901802909019028F
:10109000A0901A02B0901B02D501C401B0588093F1
:1010A000C6059093C705A093C805B093C90520E075
:1010B00030E040E05FE3C501B401F1D3A701960140
:1010C000EED39B01AC0160919E0570919F058091CC
:1010D000A0059091A105C5D16B017C012D813E81B8
:1010E0004F815885C301B201BCD1A5019401D7D36A
:1010F0009B01AC01C701B601B4D1E1CC29813A8191
:101100004B815C81C301B20124D287FFFBCBA301D9
:10111000920169817A818B819C81A3D14B015C0111
:10112000A7019601609118027091190280911A022C
:1011300090911B0212D26B017C019058A501940181
:10114000AED36093C6057093C7058093C80590938E
:10115000C90520E030E040E05FE3C701B6019FD35E
:101160002B013C01A5019401C501B40198D39B0159
:10117000AC01C301B2016ACC10929605109297059A
:10118000109298051092990583CD80E090E0DC01E3
:10119000CCCDCF92DF92EF92FF920F931F93CF931C
:1011A000DF93E6E4F2E084EADF011D928A95E9F735
:1011B0008EED92E095838483C0EED2E0D7AFC6AFC8
:1011C00002ED12E0138B028BF093AF02E093AE02BC
:1011D000F383E28321E030E0DC012D933C9380E255
:1011E00092E09187808782EE92E0998388834FE630
:1011F00052E163E07AE3F8014083518362837383B1
:10120000EAEBF5E08CE1DF011D928A95E9F7C2E790
:10121000D5E088E4FE0111928A95E9F711E0109378
:10122000B805C12CD12C7601C394C986DA86EB8629
:10123000FC8661E083E00FD81D8718821093B70504
:10124000C982DA82EB82FC8261E086E004D81D83E9
:10125000188A1093B905C98ADA8AEB8AFC8A61E098
:1012600088E00E942B011D8B1092B60580E090E073
:10127000A0E0B0E4888F998FAA8FBB8F1C8E1D8E43
:101280001E8E1F8E18A219A21AA21BA21CA21DA29A
:101290001EA21FA218A619A61AA61BA6DF91CF91FF
:1012A0001F910F91FF90EF90DF90CF900895809164
:1012B0007A05811103C081E080937A0580917205DF
:1012C000811103C081E080937205809182058111B4
:1012D00003C081E080938205089540E855E260E014
:1012E00070E090E080E000C08130910571F01CF466
:1012F000892B39F008958230910559F0039769F0F0
:10130000089526E08EEF92E0E0C526E08BE993E0B9
:10131000FBCF26E088E394E0F7CF26E085ED94E06C
:10132000F3CF0895CF92DF92EF92FF920F931F9326
:10133000ACD36093EA027093EB028093EC0290933B
:10134000ED020091EE021091EF022091F002309137
:10135000F1026B017C01C01AD10AE20AF30A97017B
:101360008601043F11402105310508F16093EE022A
:101370007093EF028093F0029093F10225D085D311
:101380000091EE021091EF022091F0023091F102F3
:10139000601B710B820B930B643F714081059105BB
:1013A00070F081E090E09093F4028093F30281E08A
:1013B0001F910F91FF90EF90DF90CF9008951092C2
:1013C000F4021092F302F3CF8091F20291E0980FB1
:1013D0009093F202882349F021E030E03093F40248
:1013E0002093F3028093F20208950E948901809174
:1013F000F2028150F7CFCF93DF931092D70510926E
:10140000D60568D36ADFC0913202D09133021982C7
:101410001882BFDEF89485DF81E028813981232B93
:1014200009F080E08093D60578948091D6058111EB
:1014300007C03DDFF89490E080E0DF91CF91089500
:1014400081E028813981232B09F480E08093D7053E
:101450009091D70581E0911180E08093D60562DFFD
:10146000E4CF5058BB27AA270ED0C4C1B5D130F065
:10147000BAD120F031F49F3F11F41EF4AAC10EF44A
:10148000E095E7FB77C1E92FC6D180F3BA17620771
:1014900073078407950718F071F49EF5F5C10EF4F3
:1014A000E0950B2EBA2FA02D0B01B90190010C0174
:1014B000CA01A0011124FF27591B99F0593F50F48C
:1014C000503E68F11A16F040A22F232F342F4427E4
:1014D000585FF3CF469537952795A795F0405395DC
:1014E000C9F77EF41F16BA0B620B730B840BBAF0AC
:1014F0009150A1F0FF0FBB1F661F771F881FC2F717
:101500000EC0BA0F621F731F841F48F4879577952A
:101510006795B795F7959E3F08F0B3CF9395880FE1
:1015200008F09927EE0F97958795089596D180F04A
:101530009F3740F491110EF4A8C160E070E080E89C
:101540009FE3089526F01B16611D711D811D18C1B2
:1015500032C1ECD008F481E008950CD04BC143D1E6
:1015600040F03AD130F021F45F3F19F003C151113E
:101570008CC12FC150D198F39923C9F35523B1F3EE
:10158000951B550BBB27AA2762177307840738F0F2
:101590009F5F5F4F220F331F441FAA1FA9F333D051
:1015A0000E2E3AF0E0E830D091505040E695001C05
:1015B000CAF729D0FE2F27D0660F771F881FBB1FC1
:1015C000261737074807AB07B0E809F0BB0B802D9B
:1015D000BF01FF2793585F4F2AF09E3F510568F0E7
:1015E000C9C053C15F3FECF3983EDCF38695779515
:1015F0006795B795F7959F5FC9F7880F911D9695E9
:10160000879597F90895E1E0660F771F881FBB1F44
:10161000621773078407BA0720F0621B730B840BF1
:10162000BA0BEE1F88F7E095089504D06894B111C5
:101630002CC10895F8D088F09F5790F0B92F9927C2
:10164000B751A0F0D1F0660F771F881F991F1AF0CD
:10165000BA95C9F712C0B13081F016D1B1E0089542
:1016600013C1672F782F8827B85F39F0B93FCCF3C3
:10167000869577956795B395D9F73EF490958095C3
:10168000709561957F4F8F4F9F4F0895E89409C0E3
:1016900097FB3EF490958095709561957F4F8F4FA5
:1016A0009F4F9923A9F0F92F96E9BB279395F695BB
:1016B000879577956795B795F111F8CFFAF4BB0F39
:1016C00011F460FF1BC06F5F7F4F8F4F9F4F16C09D
:1016D000882311F096E911C0772321F09EE8872F27
:1016E000762F05C0662371F096E8862F70E060E0E3
:1016F0002AF09A95660F771F881FDAF7880F96955C
:10170000879597F90895A9D080F09F3740F49111FB
:101710000EF0BBC060E070E080E89FEB089526F417
:101720001B16611D711D811D2BC045C0990F00083E
:10173000550FAA0BE0E8FEEF16161706E807F907A3
:10174000C0F012161306E407F50798F0621B730B3E
:10175000840B950B39F40A2661F0232B242B252BBF
:1017600021F408950A2609F4A140A6958FEF811D62
:10177000811D089597F99F6780E870E060E0089503
:10178000882371F4772321F09850872B762F07C098
:10179000662311F499270DC09051862B70E060E00C
:1017A0002AF09A95660F771F881FDAF7880F9695AB
:1017B000879597F908959F3F31F0915020F48795D0
:1017C00077956795B795880F911D9695879597F9A9
:1017D00008959FEF80EC089500240A9416161706CA
:1017E00018060906089500240A9412161306140612
:1017F00005060895092E0394000C11F4882352F075
:10180000BB0F40F4BF2B11F460FF04C06F5F7F4F2C
:101810008F4F9F4F089557FD9058440F551F59F013
:101820005F3F71F04795880F97FB991F61F09F3FCD
:1018300079F087950895121613061406551FF2CFF6
:101840004695F1DF08C0161617061806991FF1CF46
:1018500086957105610508940895E5DFA0F0BEE75F
:10186000B91788F4BB279F3860F41616B11D672F8F
:10187000782F8827985FF7CF869577956795B11D64
:1018800093959639C8F30895E894BB276627772780
:10189000CB0197F908954ADF08F48FEF08950BD034
:1018A000A9CF9ADF28F09FDF18F0952309F062CFC7
:1018B00090CF1124EACFAFDFA0F3959FD1F3950F1E
:1018C00050E0551F629FF001729FBB27F00DB11DC4
:1018D000639FAA27F00DB11DAA1F649F6627B00D54
:1018E000A11D661F829F2227B00DA11D621F739F3D
:1018F000B00DA11D621F839FA00D611D221F749F4B
:101900003327A00D611D231F849F600D211D822F91
:10191000762F6A2F11249F5750408AF0E1F08823D8
:101920004AF0EE0FFF1FBB1F661F771F881F9150E5
:101930005040A9F79E3F510570F01CCFA6CF5F3FE6
:10194000ECF3983EDCF3869577956795B795F79518
:10195000E7959F5FC1F7FE2B880F911D96958795A0
:1019600097F9089511F40EF434CF25CF5CDFD0F34E
:101970009923D9F3CEF39F57550B87FF35D0002419
:10198000A0E640EA900180585695979528F4805C2F
:10199000660F771F881F20F026173707480730F497
:1019A000621B730B840B202931294A2BA6951794AF
:1019B0000794202531254A2758F7660F771F881F7F
:1019C00020F026173707480730F4620B730B840B9F
:1019D000200D311D411DA09581F7B901842F91582B
:1019E000880F96958795089591505040660F771F00
:1019F000881FD2F708951F920F920FB60F921124ED
:101A00002F933F938F939F93AF93BF938091F60251
:101A10009091F702A091F802B091F9023091F5028D
:101A200023E0230F2D3758F50196A11DB11D2093FA
:101A3000F5028093F6029093F702A093F802B09318
:101A4000F9028091FA029091FB02A091FC02B09100
:101A5000FD020196A11DB11D8093FA029093FB0235
:101A6000A093FC02B093FD02BF91AF919F918F9123
:101A70003F912F910F900FBE0F901F90189526E861
:101A8000230F0296A11DB11DD2CF3FB7F8948091CC
:101A9000FA029091FB02A091FC02B091FD0226B5E2
:101AA000A89B05C02F3F19F00196A11DB11D3FBF96
:101AB000BA2FA92F982F8827BC01CD01620F711D65
:101AC000811D911D42E0660F771F881F991F4A955F
:101AD000D1F70895789484B5826084BD84B581601F
:101AE00084BD85B5826085BD85B5816085BDEEE626
:101AF000F0E0808181608083E1E8F0E01082808105
:101B000082608083808181608083E0E8F0E0808172
:101B100081608083E1EBF0E0808184608083E0EB92
:101B2000F0E0808181608083E1E9F0E08081826083
:101B30008083808181608083E0E9F0E08081816042
:101B40008083E1EAF0E0808182608083808181602F
:101B50008083E0EAF0E0808181608083E1E2F1E06F
:101B6000808182608083808181608083E0E2F1E017
:101B7000808181608083EAE7F0E0808184608083F7
:101B800080818260808380818160808380818068A1
:101B900080831092C10008958150823108F059C0AD
:101BA000E82FF0E08827E952F24F8F4F6DC4F70D10
:101BB000FB0DE90DEF0DF30D290EFE0D040E080EC1
:101BC0000E0E120E160E1C0E200E290E240E2A0EBC
:101BD0002E0E809180008F778093800008958091F1
:101BE00080008F7DF9CF80918000877FF5CF84B50D
:101BF0008F7784BD089584B58F7DFBCF8091B00031
:101C00008F778093B00008958091B0008F7DF9CFD9
:101C1000809190008F77809390000895809190003C
:101C20008F7DF9CF80919000877FF5CF8091A000C4
:101C30008F778093A00008958091A0008F7DF9CFC9
:101C40008091A000877FF5CF809120018F778093CE
:101C500020010895809120018F7DF9CF809120018E
:101C6000877FF5CFCF93DF9390E0FC01E65DFE4FD9
:101C7000249180599E4FFC0184918823C9F090E003
:101C8000880F991FFC01E053FE4FA591B491FC0110
:101C9000EA54FE4FC591D49161110DC09FB7F894DD
:101CA0008C91209582238C938881282328839FBF41
:101CB000DF91CF910895623051F49FB7F8943C9131
:101CC000822F809583238C93E8812E2BEFCF8FB7C3
:101CD000F894EC912E2B2C938FBFEACF1F93CF93C8
:101CE000DF93282F30E0F901EC51FF4F8491F90187
:101CF000E65DFE4FD491F901E059FE4FC491CC232B
:101D0000A1F0162F811148DFEC2FF0E0EE0FFF1F3E
:101D1000EA54FE4FA591B4918FB7F894EC9111114C
:101D200008C0D095DE23DC938FBFDF91CF911F9148
:101D30000895DE2BF8CFFC01918D228D892F90E044
:101D4000805C9F4F821B91098F7399270895FC0136
:101D5000918D828D981731F0828DE80FF11D858D60
:101D600090E008958FEF9FEF0895FC01918D828D93
:101D7000981761F0A28DAE0FBF2FB11D5D968C91AB
:101D8000928D9F5F9F73928F90E008958FEF9FEFEA
:101D90000895FC01538D448D252F30E0842F90E071
:101DA000821B930B541710F0CF9608950197089556
:101DB000FC01A48DA80FB92FB11DA35ABF4F2C91C0
:101DC000848D90E001968F739927848FA689B789B7
:101DD0002C93A089B1898C91837080648C93938DAE
:101DE000848D981306C00288F389E02D80818F7D51
:101DF00080830895CF93DF93EC01888D8823B1F021
:101E0000AA89BB89E889F9898C9185FD03C0808105
:101E100086FD0CC00FB607FCF7CF8C9185FFF2CF83
:101E2000808185FFEDCFCE01C3DFEACFDF91CF9177
:101E30000895EF92FF920F931F93CF93DF93EC01DE
:101E400081E0888F9B8D8C8D98131AC0E889F98961
:101E5000808185FF15C09FB7F894EE89FF89608364
:101E6000E889F98980818370806480839FBF81E0E5
:101E700090E0DF91CF911F910F91FF90EF90089527
:101E8000F62E0B8D10E00F5F1F4F0F731127E02E02
:101E90008C8D8E110BC00FB607FCFACFE889F9893B
:101EA000808185FFF5CFCE0183DFF2CFEB8DEC0F84
:101EB000FD2FF11DE35AFF4FF0829FB7F8940B8F6F
:101EC000EA89FB8980818062D0CFCF92DF92EF9246
:101ED000FF921F93CF93DF93EC016A017B01122FD6
:101EE000E889F98982E08083C11481EED806E10493
:101EF000F10499F060E079E08DE390E0A7019601AC
:101F0000A1D221503109410951095695479537957C
:101F10002795211580E1380790F0E889F98910822A
:101F200060E874E88EE190E0A70196018BD2215021
:101F30003109410951095695479537952795EC8503
:101F4000FD853083EE85FF852083188EEC89FD8921
:101F50001083EA89FB89808180618083EA89FB891B
:101F6000808188608083EA89FB89808180688083A2
:101F7000EA89FB8980818F7D8083DF91CF911F91DA
:101F8000FF90EF90DF90CF9008951F920F920FB6C1
:101F90000F9211240BB60F922F938F939F93EF9371
:101FA000FF93E0910E03F0910F038081E091140301
:101FB000F091150382FD1DC09081809117038F5F02
:101FC0008F7320911803821741F0E0911703F0E01E
:101FD000E250FD4F958F80931703FF91EF919F91F2
:101FE0008F912F910F900BBE0F900FBE0F901F90EF
:101FF00018958081F2CF1F920F920FB60F92112485
:102000000BB60F922F933F934F935F936F937F93F2
:102010008F939F93AF93BF93EF93FF938EEF92E0D5
:10202000C7DEFF91EF91BF91AF919F918F917F910B
:102030006F915F914F913F912F910F900BBE0F9039
:102040000FBE0F901F901895EEEFF2E013821282F0
:1020500088EE93E0A0E0B0E084839583A683B78305
:1020600088E392E09183808385EC90E09587848774
:1020700084EC90E09787868780EC90E0918B808B52
:1020800081EC90E0938B828B82EC90E0958B848B3B
:1020900086EC90E0978B868B118E128E138E148EA9
:1020A00008951F920F920FB60F9211240BB60F9244
:1020B0002F938F939F93EF93FF93E091AB03F09156
:1020C000AC038081E091B103F091B20382FD1DC0A9
:1020D00090818091B4038F5F8F732091B503821735
:1020E00041F0E091B403F0E0E556FC4F958F80930A
:1020F000B403FF91EF919F918F912F910F900BBEA1
:102100000F900FBE0F901F9018958081F2CF1F92F5
:102110000F920FB60F9211240BB60F922F933F938D
:102120004F935F936F937F938F939F93AF93BF93DF
:10213000EF93FF938BE993E03BDEFF91EF91BF912B
:10214000AF919F918F917F916F915F914F913F914F
:102150002F910F900BBE0F900FBE0F901F901895F0
:10216000EBE9F3E01382128288EE93E0A0E0B0E0A6
:1021700084839583A683B78388E392E091838083E9
:102180008DEC90E0958784878CEC90E0978786872C
:1021900088EC90E0918B808B89EC90E0938B828B24
:1021A0008AEC90E0958B848B8EEC90E0978B868BFD
:1021B000118E128E138E148E08951F920F920FB6E9
:1021C0000F9211240BB60F922F938F939F93EF933F
:1021D000FF93E0914804F09149048081E0914E041E
:1021E000F0914F0482FD1DC09081809151048F5F5A
:1021F0008F7320915204821741F0E0915104F0E076
:10220000E85CFB4F958F80935104FF91EF919F9174
:102210008F912F910F900BBE0F900FBE0F901F90BC
:1022200018958081F2CF1F920F920FB60F92112452
:102230000BB60F922F933F934F935F936F937F93C0
:102240008F939F93AF93BF93EF93FF9388E394E0B3
:10225000AFDDFF91EF91BF91AF919F918F917F91F2
:102260006F915F914F913F912F910F900BBE0F9007
:102270000FBE0F901F901895E8E3F4E013821282CE
:1022800088EE93E0A0E0B0E084839583A683B783D3
:1022900088E392E09183808385ED90E09587848741
:1022A00084ED90E09787868780ED90E0918B808B1E
:1022B00081ED90E0938B828B82ED90E0958B848B07
:1022C00086ED90E0978B868B118E128E138E148E76
:1022D00008951F920F920FB60F9211240BB60F9212
:1022E0002F938F939F93EF93FF93E091E504F091E9
:1022F000E6048081E091EB04F091EC0482FD1DC0C6
:1023000090818091EE048F5F8F732091EF0482178C
:1023100041F0E091EE04F0E0EB52FB4F958F80939B
:10232000EE04FF91EF919F918F912F910F900BBE33
:102330000F900FBE0F901F9018958081F2CF1F92C3
:102340000F920FB60F9211240BB60F922F933F935B
:102350004F935F936F937F938F939F93AF93BF93AD
:10236000EF93FF9385ED94E023DDFF91EF91BF9113
:10237000AF919F918F917F916F915F914F913F911D
:102380002F910F900BBE0F900FBE0F901F901895BE
:10239000E5EDF4E01382128288EE93E0A0E0B0E075
:1023A00084839583A683B78388E392E091838083B7
:1023B00085E391E09587848784E391E0978786871A
:1023C00080E391E0918B808B81E391E0938B828B12
:1023D00082E391E0958B848B86E391E0978B868BEB
:1023E000118E128E138E148E0895AF92BF92CF92DB
:1023F000DF92EF92FF920F931F93CF93DF936C01C5
:102400007B018B01040F151FEB015E01AE18BF08A5
:10241000C017D10759F06991D601ED91FC91019057
:10242000F081E02DC6011995892B79F7C501DF915F
:10243000CF911F910F91FF90EF90DF90CF90BF90C1
:10244000AF900895A1E21A2EAA1BBB1BFD010DC07F
:10245000AA1FBB1FEE1FFF1FA217B307E407F50754
:1024600020F0A21BB30BE40BF50B661F771F881F30
:10247000991F1A9469F760957095809590959B01C6
:10248000AC01BD01CF010895EE0FFF1F881F8BBF68
:0C2490000790F691E02D1994F894FFCF0E
:10249C00000000000000B0410000204100000000DE
:1024AC00000020410000A04100007042000000002C
:1024BC0046697865645374657044697363726574B6
:1024CC006500460200000000190FF511C90EFA0E46
:0624DC009B0EB50EA70ED9
:00000001FF
